{
  "address": "0xb62c3A470d7Ae8dBb1B114a91Eb148bd5A73F13e",
  "abi": [
    {
      "inputs": [
        {
          "internalType": "address",
          "name": "_chicksAddress",
          "type": "address"
        },
        {
          "internalType": "address",
          "name": "_eggAddress",
          "type": "address"
        }
      ],
      "stateMutability": "nonpayable",
      "type": "constructor"
    },
    {
      "anonymous": false,
      "inputs": [
        {
          "indexed": true,
          "internalType": "address",
          "name": "previousOwner",
          "type": "address"
        },
        {
          "indexed": true,
          "internalType": "address",
          "name": "newOwner",
          "type": "address"
        }
      ],
      "name": "OwnershipTransferred",
      "type": "event"
    },
    {
      "anonymous": false,
      "inputs": [
        {
          "indexed": true,
          "internalType": "address",
          "name": "user",
          "type": "address"
        },
        {
          "indexed": false,
          "internalType": "uint256",
          "name": "reward",
          "type": "uint256"
        }
      ],
      "name": "RewardPaid",
      "type": "event"
    },
    {
      "anonymous": false,
      "inputs": [
        {
          "indexed": false,
          "internalType": "address",
          "name": "owner",
          "type": "address"
        },
        {
          "indexed": false,
          "internalType": "uint256",
          "name": "amount",
          "type": "uint256"
        }
      ],
      "name": "Staked",
      "type": "event"
    },
    {
      "anonymous": false,
      "inputs": [
        {
          "indexed": false,
          "internalType": "address",
          "name": "owner",
          "type": "address"
        },
        {
          "indexed": false,
          "internalType": "uint256",
          "name": "amount",
          "type": "uint256"
        }
      ],
      "name": "Unstaked",
      "type": "event"
    },
    {
      "inputs": [],
      "name": "_chicksAddress",
      "outputs": [
        {
          "internalType": "address",
          "name": "",
          "type": "address"
        }
      ],
      "stateMutability": "view",
      "type": "function"
    },
    {
      "inputs": [],
      "name": "_eggAddress",
      "outputs": [
        {
          "internalType": "address",
          "name": "",
          "type": "address"
        }
      ],
      "stateMutability": "view",
      "type": "function"
    },
    {
      "inputs": [],
      "name": "allowClaiming",
      "outputs": [
        {
          "internalType": "bool",
          "name": "",
          "type": "bool"
        }
      ],
      "stateMutability": "view",
      "type": "function"
    },
    {
      "inputs": [],
      "name": "allowStaking",
      "outputs": [
        {
          "internalType": "bool",
          "name": "",
          "type": "bool"
        }
      ],
      "stateMutability": "view",
      "type": "function"
    },
    {
      "inputs": [
        {
          "internalType": "uint256",
          "name": "",
          "type": "uint256"
        }
      ],
      "name": "apprUsers",
      "outputs": [
        {
          "internalType": "address",
          "name": "",
          "type": "address"
        }
      ],
      "stateMutability": "view",
      "type": "function"
    },
    {
      "inputs": [
        {
          "internalType": "address",
          "name": "user",
          "type": "address"
        }
      ],
      "name": "calcRewardPerDay",
      "outputs": [
        {
          "internalType": "uint256",
          "name": "",
          "type": "uint256"
        }
      ],
      "stateMutability": "view",
      "type": "function"
    },
    {
      "inputs": [
        {
          "internalType": "address",
          "name": "user",
          "type": "address"
        }
      ],
      "name": "claimAll",
      "outputs": [],
      "stateMutability": "nonpayable",
      "type": "function"
    },
    {
      "inputs": [
        {
          "internalType": "address",
          "name": "user",
          "type": "address"
        },
        {
          "internalType": "uint256",
          "name": "_tokenId",
          "type": "uint256"
        }
      ],
      "name": "claimReward",
      "outputs": [],
      "stateMutability": "nonpayable",
      "type": "function"
    },
    {
      "inputs": [],
      "name": "cycleTime",
      "outputs": [
        {
          "internalType": "uint256",
          "name": "",
          "type": "uint256"
        }
      ],
      "stateMutability": "view",
      "type": "function"
    },
    {
      "inputs": [
        {
          "internalType": "address",
          "name": "user",
          "type": "address"
        }
      ],
      "name": "getAllRewardedToken",
      "outputs": [
        {
          "internalType": "uint256",
          "name": "",
          "type": "uint256"
        }
      ],
      "stateMutability": "view",
      "type": "function"
    },
    {
      "inputs": [
        {
          "internalType": "address",
          "name": "user",
          "type": "address"
        },
        {
          "internalType": "uint256",
          "name": "tokenId",
          "type": "uint256"
        }
      ],
      "name": "getRewardedToken",
      "outputs": [
        {
          "internalType": "uint256",
          "name": "",
          "type": "uint256"
        }
      ],
      "stateMutability": "view",
      "type": "function"
    },
    {
      "inputs": [],
      "name": "getStakeUsers",
      "outputs": [
        {
          "internalType": "address[]",
          "name": "",
          "type": "address[]"
        }
      ],
      "stateMutability": "nonpayable",
      "type": "function"
    },
    {
      "inputs": [
        {
          "internalType": "address",
          "name": "user",
          "type": "address"
        }
      ],
      "name": "getStakedTokens",
      "outputs": [
        {
          "internalType": "uint256[]",
          "name": "tokenIds",
          "type": "uint256[]"
        }
      ],
      "stateMutability": "view",
      "type": "function"
    },
    {
      "inputs": [],
      "name": "owner",
      "outputs": [
        {
          "internalType": "address",
          "name": "",
          "type": "address"
        }
      ],
      "stateMutability": "view",
      "type": "function"
    },
    {
      "inputs": [],
      "name": "renounceOwnership",
      "outputs": [],
      "stateMutability": "nonpayable",
      "type": "function"
    },
    {
      "inputs": [
        {
          "internalType": "address",
          "name": "chicksAddress",
          "type": "address"
        }
      ],
      "name": "setChicksContract",
      "outputs": [],
      "stateMutability": "nonpayable",
      "type": "function"
    },
    {
      "inputs": [
        {
          "internalType": "address",
          "name": "eggAddress",
          "type": "address"
        }
      ],
      "name": "setEggContract",
      "outputs": [],
      "stateMutability": "nonpayable",
      "type": "function"
    },
    {
      "inputs": [
        {
          "internalType": "uint256",
          "name": "_tokenId",
          "type": "uint256"
        }
      ],
      "name": "stake",
      "outputs": [],
      "stateMutability": "nonpayable",
      "type": "function"
    },
    {
      "inputs": [
        {
          "internalType": "uint256[]",
          "name": "_tokenIds",
          "type": "uint256[]"
        }
      ],
      "name": "stakeArray",
      "outputs": [],
      "stateMutability": "nonpayable",
      "type": "function"
    },
    {
      "inputs": [
        {
          "internalType": "uint256",
          "name": "",
          "type": "uint256"
        }
      ],
      "name": "stakeUsers",
      "outputs": [
        {
          "internalType": "address",
          "name": "",
          "type": "address"
        }
      ],
      "stateMutability": "view",
      "type": "function"
    },
    {
      "inputs": [
        {
          "internalType": "address",
          "name": "",
          "type": "address"
        },
        {
          "internalType": "uint256",
          "name": "",
          "type": "uint256"
        }
      ],
      "name": "stakerToken",
      "outputs": [
        {
          "internalType": "uint256",
          "name": "",
          "type": "uint256"
        }
      ],
      "stateMutability": "view",
      "type": "function"
    },
    {
      "inputs": [
        {
          "internalType": "address",
          "name": "",
          "type": "address"
        },
        {
          "internalType": "uint256",
          "name": "",
          "type": "uint256"
        }
      ],
      "name": "stakers",
      "outputs": [
        {
          "internalType": "uint256",
          "name": "",
          "type": "uint256"
        }
      ],
      "stateMutability": "view",
      "type": "function"
    },
    {
      "inputs": [],
      "name": "toggleAllowClaiming",
      "outputs": [],
      "stateMutability": "nonpayable",
      "type": "function"
    },
    {
      "inputs": [],
      "name": "toggleAllowStaking",
      "outputs": [],
      "stateMutability": "nonpayable",
      "type": "function"
    },
    {
      "inputs": [
        {
          "internalType": "address",
          "name": "newOwner",
          "type": "address"
        }
      ],
      "name": "transferOwnership",
      "outputs": [],
      "stateMutability": "nonpayable",
      "type": "function"
    },
    {
      "inputs": [
        {
          "internalType": "address",
          "name": "user",
          "type": "address"
        },
        {
          "internalType": "uint256",
          "name": "_tokenId",
          "type": "uint256"
        }
      ],
      "name": "unstake",
      "outputs": [],
      "stateMutability": "nonpayable",
      "type": "function"
    },
    {
      "inputs": [
        {
          "internalType": "address",
          "name": "user",
          "type": "address"
        },
        {
          "internalType": "uint256[]",
          "name": "_tokenIds",
          "type": "uint256[]"
        }
      ],
      "name": "unstakeArray",
      "outputs": [],
      "stateMutability": "nonpayable",
      "type": "function"
    }
  ],
  "transactionHash": "0x3067b42ab5a06f312acfa018951551098b4bdc363a56c40056051b44418d4766",
  "args": [
    "0xd80A5574dC8841A67837eadBe1c5e301c9eb8377",
    "0x509CE56Ea7e4474D5c7F6D00095fB33219308Ea3"
  ],
  "numDeployments": 11,
  "solcInputHash": "fb0cd9b8ea48e1853064605b4399ef53",
  "bytecode": "0x608060405262015180600955600a805461ffff19166101011790553480156200002757600080fd5b5060405162001d6538038062001d658339810160408190526200004a91620001d2565b620000553362000073565b6200006081620000c3565b6200006b826200013e565b505062000209565b600080546001600160a01b038381166001600160a01b0319831681178455604051919092169283917f8be0079c531659141344cd1fd0a4f28419497f9722a3daafe3b4186f6b6457e09190a35050565b6000546001600160a01b03163314620001125760405162461bcd60e51b8152602060048201819052602482015260008051602062001d4583398151915260448201526064015b60405180910390fd5b600180546001600160a01b039092166001600160a01b0319928316811790915560038054909216179055565b6000546001600160a01b03163314620001895760405162461bcd60e51b8152602060048201819052602482015260008051602062001d45833981519152604482015260640162000109565b600280546001600160a01b039092166001600160a01b0319928316811790915560048054909216179055565b80516001600160a01b0381168114620001cd57600080fd5b919050565b60008060408385031215620001e5578182fd5b620001f083620001b5565b91506200020060208401620001b5565b90509250929050565b611b2c80620002196000396000f3fe608060405234801561001057600080fd5b50600436106101a95760003560e01c80638da5cb5b116100f9578063d708e2c111610097578063e62f981411610071578063e62f9814146103a4578063e8a63682146103b1578063eb0cb0c3146103c4578063f2fde38b146103cc57600080fd5b8063d708e2c114610366578063de7333971461036f578063dfb2a5411461039157600080fd5b8063a694fc3a116100d3578063a694fc3a14610325578063c2a672e014610338578063c8b6cbf71461034b578063c9dd39a21461035e57600080fd5b80638da5cb5b146102ee578063901af3e9146102ff5780639d906a851461031257600080fd5b8063625caad11161016657806377329f351161014057806377329f35146102885780637c4ef1bd1461029b57806383bcaa1e146102c657806386211933146102d957600080fd5b8063625caad11461024d57806363c28db114610260578063715018a61461028057600080fd5b806305c1ad29146101ae578063174e31c4146101d457806318777867146101e95780631fbea948146101fc57806322e05b5c1461020f5780634211fc1d1461023a575b600080fd5b6101c16101bc3660046117ec565b6103df565b6040519081526020015b60405180910390f35b6101e76101e2366004611877565b610477565b005b6101c16101f73660046117ec565b6104cb565b6101e761020a3660046117ec565b610615565b600254610222906001600160a01b031681565b6040516001600160a01b0390911681526020016101cb565b6101e7610248366004611824565b61066b565b61022261025b366004611902565b6107c8565b61027361026e3660046117ec565b6107f2565b6040516101cb9190611967565b6101e761085e565b6101e76102963660046117ec565b610894565b6101c16102a9366004611877565b600760209081526000928352604080842090915290825290205481565b6102226102d4366004611902565b6109b9565b6102e16109c9565b6040516101cb919061191a565b6000546001600160a01b0316610222565b6101e761030d3660046117ec565b610b06565b6101c1610320366004611877565b610b5c565b6101e7610333366004611902565b610c18565b6101e7610346366004611877565b610d30565b6101c1610359366004611877565b610df3565b6101e7610e24565b6101c160095481565b600a5461038190610100900460ff1681565b60405190151581526020016101cb565b600154610222906001600160a01b031681565b600a546103819060ff1681565b6101e76103bf3660046118a2565b610e62565b6101e7610fe9565b6101e76103da3660046117ec565b611030565b600080805b6001600160a01b038416600090815260086020526040902054811015610470576001600160a01b038416600090815260086020526040902080546104529186918490811061044257634e487b7160e01b600052603260045260246000fd5b9060005260206000200154610b5c565b61045c9083611a42565b91508061046881611ab0565b9150506103e4565b5092915050565b6001600160a01b03821633148061049857506000546001600160a01b031633145b6104bd5760405162461bcd60e51b81526004016104b4906119e7565b60405180910390fd5b6104c782826110c8565b5050565b600080805b6001600160a01b038416600090815260086020526040902054811015610470576001600160a01b03841660009081526008602052604090208054600791908390811061052c57634e487b7160e01b600052603260045260246000fd5b9060005260206000200154101561054f57610548600383611a42565b9150610603565b6001600160a01b03841660009081526008602052604090208054603391908390811061058b57634e487b7160e01b600052603260045260246000fd5b906000526020600020015410156105a757610548600283611a42565b6001600160a01b038416600090815260086020526040902080546127119190839081106105e457634e487b7160e01b600052603260045260246000fd5b9060005260206000200154101561060357610600600183611a42565b91505b8061060d81611ab0565b9150506104d0565b6000546001600160a01b0316331461063f5760405162461bcd60e51b81526004016104b490611a0d565b600180546001600160a01b039092166001600160a01b0319928316811790915560038054909216179055565b6001600160a01b03831633148061068c57506000546001600160a01b031633145b6106a85760405162461bcd60e51b81526004016104b4906119e7565b60005b818110156107c2576001600160a01b038416600090815260076020526040812042918585858181106106ed57634e487b7160e01b600052603260045260246000fd5b90506020020135815260200190815260200160002054106107505760405162461bcd60e51b815260206004820152601f60248201527f53656e646572206d7573742068617665207374616b656420746f6b656e49440060448201526064016104b4565b6107808484848481811061077457634e487b7160e01b600052603260045260246000fd5b905060200201356110c8565b6107b0848484848181106107a457634e487b7160e01b600052603260045260246000fd5b905060200201356111fb565b806107ba81611ab0565b9150506106ab565b50505050565b600681815481106107d857600080fd5b6000918252602090912001546001600160a01b0316905081565b6001600160a01b03811660009081526008602090815260409182902080548351818402810184019094528084526060939283018282801561085257602002820191906000526020600020905b81548152602001906001019080831161083e575b50505050509050919050565b6000546001600160a01b031633146108885760405162461bcd60e51b81526004016104b490611a0d565b61089260006114d8565b565b6001600160a01b0381163314806108b557506000546001600160a01b031633145b6108d15760405162461bcd60e51b81526004016104b4906119e7565b6001600160a01b0381166000908152600860205260409020546109365760405162461bcd60e51b815260206004820152601b60248201527f53656e646572206d7573742068617665207374616b6564204e4654000000000060448201526064016104b4565b60005b6001600160a01b0382166000908152600860205260409020548110156104c7576001600160a01b038216600090815260086020526040902080546109a79184918490811061099757634e487b7160e01b600052603260045260246000fd5b90600052602060002001546110c8565b806109b181611ab0565b915050610939565b600581815481106107d857600080fd5b6060806000805b600554811015610afe5760086000600583815481106109ff57634e487b7160e01b600052603260045260246000fd5b60009182526020808320909101546001600160a01b03168352820192909252604001902054610a675760058181548110610a4957634e487b7160e01b600052603260045260246000fd5b600091825260209091200180546001600160a01b0319169055610aec565b60058181548110610a8857634e487b7160e01b600052603260045260246000fd5b9060005260206000200160009054906101000a90046001600160a01b0316838381518110610ac657634e487b7160e01b600052603260045260246000fd5b6001600160a01b039092166020928302919091019091015281610ae881611ab0565b9250505b80610af681611ab0565b9150506109d0565b509092915050565b6000546001600160a01b03163314610b305760405162461bcd60e51b81526004016104b490611a0d565b600280546001600160a01b039092166001600160a01b0319928316811790915560048054909216179055565b6001600160a01b0382166000908152600760209081526040808320848452909152812054819015610c11576001600160a01b0384166000908152600760209081526040808320868452909152812054600954909190610bbb8342611a99565b610bc59190611a5a565b90506007851015610be257610bdb816003611a7a565b9250610c0e565b6033851015610bf657610bdb816002611a7a565b612711851015610c0e57610c0b816001611a7a565b92505b50505b9392505050565b600a5460ff16610c6a5760405162461bcd60e51b815260206004820152601d60248201527f5374616b696e672069732063757272656e746c792064697361626c656400000060448201526064016104b4565b60048054604051630914a87160e41b815291820183905233916001600160a01b039091169063914a87109060240160206040518083038186803b158015610cb057600080fd5b505afa158015610cc4573d6000803e3d6000fd5b505050506040513d601f19601f82011682018060405250810190610ce89190611808565b6001600160a01b03161480610d0757506000546001600160a01b031633145b610d235760405162461bcd60e51b81526004016104b49061199f565b610d2d3382611528565b50565b6001600160a01b038216331480610d5157506000546001600160a01b031633145b610d6d5760405162461bcd60e51b81526004016104b4906119e7565b6001600160a01b03821660009081526007602090815260408083208484529091529020544211610ddf5760405162461bcd60e51b815260206004820152601f60248201527f53656e646572206d7573742068617665207374616b656420746f6b656e49440060448201526064016104b4565b610de982826110c8565b6104c782826111fb565b60086020528160005260406000208181548110610e0f57600080fd5b90600052602060002001600091509150505481565b6000546001600160a01b03163314610e4e5760405162461bcd60e51b81526004016104b490611a0d565b600a805460ff19811660ff90911615179055565b600a5460ff16610eb45760405162461bcd60e51b815260206004820152601d60248201527f5374616b696e672069732063757272656e746c792064697361626c656400000060448201526064016104b4565b60005b81811015610fe45760045433906001600160a01b031663914a8710858585818110610ef257634e487b7160e01b600052603260045260246000fd5b905060200201356040518263ffffffff1660e01b8152600401610f1791815260200190565b60206040518083038186803b158015610f2f57600080fd5b505afa158015610f43573d6000803e3d6000fd5b505050506040513d601f19601f82011682018060405250810190610f679190611808565b6001600160a01b03161480610f8657506000546001600160a01b031633145b610fa25760405162461bcd60e51b81526004016104b49061199f565b610fd233848484818110610fc657634e487b7160e01b600052603260045260246000fd5b90506020020135611528565b80610fdc81611ab0565b915050610eb7565b505050565b6000546001600160a01b031633146110135760405162461bcd60e51b81526004016104b490611a0d565b600a805461ff001981166101009182900460ff1615909102179055565b6000546001600160a01b0316331461105a5760405162461bcd60e51b81526004016104b490611a0d565b6001600160a01b0381166110bf5760405162461bcd60e51b815260206004820152602660248201527f4f776e61626c653a206e6577206f776e657220697320746865207a65726f206160448201526564647265737360d01b60648201526084016104b4565b610d2d816114d8565b600a54610100900460ff1661111f5760405162461bcd60e51b815260206004820152601e60248201527f436c61696d696e672069732063757272656e746c792064697361626c6564000060448201526064016104b4565b600061112b8383610b5c565b6001600160a01b0384811660008181526007602090815260408083208884529091529081902042905560035490516340c10f1960e01b81526004810192909252602482018490529293509116906340c10f1990604401600060405180830381600087803b15801561119b57600080fd5b505af11580156111af573d6000803e3d6000fd5b50505050826001600160a01b03167fe2403640ba68fed3a2f88b7557551d1993f84b99bb10ff833f0cf8db0c5e0486826040516111ee91815260200190565b60405180910390a2505050565b6001600160a01b0382166000908152600760209081526040808320848452909152812081905580805b6001600160a01b0385166000908152600860205260409020548110156112aa576001600160a01b038516600090815260086020526040902080548591908390811061127f57634e487b7160e01b600052603260045260246000fd5b9060005260206000200154141561129857809150600192505b806112a281611ab0565b915050611224565b50816112f85760405162461bcd60e51b815260206004820152601a60248201527f506c65617365207374616b65206e66742061742066697273742000000000000060448201526064016104b4565b805b6001600160a01b03851660009081526008602052604090205461131f90600190611a99565b8110156113d4576001600160a01b0385166000908152600860205260409020611349826001611a42565b8154811061136757634e487b7160e01b600052603260045260246000fd5b906000526020600020015460086000876001600160a01b03166001600160a01b0316815260200190815260200160002082815481106113b657634e487b7160e01b600052603260045260246000fd5b600091825260209091200155806113cc81611ab0565b9150506112fa565b506001600160a01b038416600090815260086020526040902080548061140a57634e487b7160e01b600052603160045260246000fd5b600082815260208120600019908301810191909155019055600480546040516323b872dd60e01b815230928101929092526001600160a01b0386811660248401526044830186905216906323b872dd90606401600060405180830381600087803b15801561147757600080fd5b505af115801561148b573d6000803e3d6000fd5b5050604080516001600160a01b0388168152602081018790527f0f5bb82176feb1b5e747e28471aa92156a04d9f3ab9f45f28e2d704232b93f75935001905060405180910390a150505050565b600080546001600160a01b038381166001600160a01b0319831681178455604051919092169283917f8be0079c531659141344cd1fd0a4f28419497f9722a3daafe3b4186f6b6457e09190a35050565b6001600160a01b03821633148061154957506000546001600160a01b031633145b6115655760405162461bcd60e51b81526004016104b4906119e7565b6004805460405163e985e9c560e01b81526001600160a01b038581169382019390935230602482015291169063e985e9c59060440160206040518083038186803b1580156115b257600080fd5b505afa1580156115c6573d6000803e3d6000fd5b505050506040513d601f19601f820116820180604052508101906115ea91906118e2565b50600480546040516323b872dd60e01b81526001600160a01b0385811693820193909352306024820152604481018490529116906323b872dd90606401600060405180830381600087803b15801561164157600080fd5b505af1158015611655573d6000803e3d6000fd5b50505050611662826116e0565b6001600160a01b0382166000818152600760209081526040808320858452825280832042905583835260088252808320805460018101825590845292829020909201849055815192835282018390527f9e71bc8eea02a63969f509818f2dafb9254532904319f9dbda79b67bd34a5f3d910160405180910390a15050565b6000805b60055481101561174b57826001600160a01b03166005828154811061171957634e487b7160e01b600052603260045260246000fd5b6000918252602090912001546001600160a01b0316141561173957600191505b8061174381611ab0565b9150506116e4565b50806104c757600580546001810182556000919091527f036b6384b5eca791c62761152d0c79bb0604c104a5fb6f4eb0703f3154bb3db00180546001600160a01b0384166001600160a01b03199091161790555050565b60008083601f8401126117b3578182fd5b50813567ffffffffffffffff8111156117ca578182fd5b6020830191508360208260051b85010111156117e557600080fd5b9250929050565b6000602082840312156117fd578081fd5b8135610c1181611ae1565b600060208284031215611819578081fd5b8151610c1181611ae1565b600080600060408486031215611838578182fd5b833561184381611ae1565b9250602084013567ffffffffffffffff81111561185e578283fd5b61186a868287016117a2565b9497909650939450505050565b60008060408385031215611889578182fd5b823561189481611ae1565b946020939093013593505050565b600080602083850312156118b4578182fd5b823567ffffffffffffffff8111156118ca578283fd5b6118d6858286016117a2565b90969095509350505050565b6000602082840312156118f3578081fd5b81518015158114610c11578182fd5b600060208284031215611913578081fd5b5035919050565b6020808252825182820181905260009190848201906040850190845b8181101561195b5783516001600160a01b031683529284019291840191600101611936565b50909695505050505050565b6020808252825182820181905260009190848201906040850190845b8181101561195b57835183529284019291840191600101611983565b60208082526028908201527f53656e646572206973206e6f74206f776e6572206f662063757272656e74204e604082015267232a103a37b5b2b760c11b606082015260800190565b6020808252600c908201526b2bb937b7339029b2b73232b960a11b604082015260600190565b6020808252818101527f4f776e61626c653a2063616c6c6572206973206e6f7420746865206f776e6572604082015260600190565b60008219821115611a5557611a55611acb565b500190565b600082611a7557634e487b7160e01b81526012600452602481fd5b500490565b6000816000190483118215151615611a9457611a94611acb565b500290565b600082821015611aab57611aab611acb565b500390565b6000600019821415611ac457611ac4611acb565b5060010190565b634e487b7160e01b600052601160045260246000fd5b6001600160a01b0381168114610d2d57600080fdfea2646970667358221220f4464b01a4e65364c583d504822281172e3c944f44df9f3f719f3487211a983d64736f6c634300080400334f776e61626c653a2063616c6c6572206973206e6f7420746865206f776e6572",
  "devdoc": {
    "kind": "dev",
    "methods": {
      "getStakedTokens(address)": {
        "details": "Getter functions for NFTStaking contractGet the tokens staked by a user"
      },
      "owner()": {
        "details": "Returns the address of the current owner."
      },
      "renounceOwnership()": {
        "details": "Leaves the contract without owner. It will not be possible to call `onlyOwner` functions anymore. Can only be called by the current owner. NOTE: Renouncing ownership will leave the contract without an owner, thereby removing any functionality that is only available to the owner."
      },
      "transferOwnership(address)": {
        "details": "Transfers ownership of the contract to a new account (`newOwner`). Can only be called by the current owner."
      }
    },
    "version": 1
  },
  "userdoc": {
    "kind": "user",
    "methods": {
      "stakeArray(uint256[])": {
        "notice": "Stake NFTs and earn reward tokens."
      }
    },
    "version": 1
  },
  "storageLayout": {
    "storage": [
      {
        "astId": 7,
        "contract": "contracts/ChicksStaking.sol:ChicksStaking",
        "label": "_owner",
        "offset": 0,
        "slot": "0",
        "type": "t_address"
      },
      {
        "astId": 3893,
        "contract": "contracts/ChicksStaking.sol:ChicksStaking",
        "label": "_eggAddress",
        "offset": 0,
        "slot": "1",
        "type": "t_address"
      },
      {
        "astId": 3895,
        "contract": "contracts/ChicksStaking.sol:ChicksStaking",
        "label": "_chicksAddress",
        "offset": 0,
        "slot": "2",
        "type": "t_address"
      },
      {
        "astId": 3898,
        "contract": "contracts/ChicksStaking.sol:ChicksStaking",
        "label": "_eggContract",
        "offset": 0,
        "slot": "3",
        "type": "t_contract(Egg)5332"
      },
      {
        "astId": 3901,
        "contract": "contracts/ChicksStaking.sol:ChicksStaking",
        "label": "_chicksContract",
        "offset": 0,
        "slot": "4",
        "type": "t_contract(Chicks)3879"
      },
      {
        "astId": 3904,
        "contract": "contracts/ChicksStaking.sol:ChicksStaking",
        "label": "stakeUsers",
        "offset": 0,
        "slot": "5",
        "type": "t_array(t_address)dyn_storage"
      },
      {
        "astId": 3907,
        "contract": "contracts/ChicksStaking.sol:ChicksStaking",
        "label": "apprUsers",
        "offset": 0,
        "slot": "6",
        "type": "t_array(t_address)dyn_storage"
      },
      {
        "astId": 3913,
        "contract": "contracts/ChicksStaking.sol:ChicksStaking",
        "label": "stakerToken",
        "offset": 0,
        "slot": "7",
        "type": "t_mapping(t_address,t_mapping(t_uint256,t_uint256))"
      },
      {
        "astId": 3918,
        "contract": "contracts/ChicksStaking.sol:ChicksStaking",
        "label": "stakers",
        "offset": 0,
        "slot": "8",
        "type": "t_mapping(t_address,t_array(t_uint256)dyn_storage)"
      },
      {
        "astId": 3921,
        "contract": "contracts/ChicksStaking.sol:ChicksStaking",
        "label": "cycleTime",
        "offset": 0,
        "slot": "9",
        "type": "t_uint256"
      },
      {
        "astId": 3924,
        "contract": "contracts/ChicksStaking.sol:ChicksStaking",
        "label": "allowStaking",
        "offset": 0,
        "slot": "10",
        "type": "t_bool"
      },
      {
        "astId": 3927,
        "contract": "contracts/ChicksStaking.sol:ChicksStaking",
        "label": "allowClaiming",
        "offset": 1,
        "slot": "10",
        "type": "t_bool"
      }
    ],
    "types": {
      "t_address": {
        "encoding": "inplace",
        "label": "address",
        "numberOfBytes": "20"
      },
      "t_array(t_address)dyn_storage": {
        "base": "t_address",
        "encoding": "dynamic_array",
        "label": "address[]",
        "numberOfBytes": "32"
      },
      "t_array(t_uint256)dyn_storage": {
        "base": "t_uint256",
        "encoding": "dynamic_array",
        "label": "uint256[]",
        "numberOfBytes": "32"
      },
      "t_bool": {
        "encoding": "inplace",
        "label": "bool",
        "numberOfBytes": "1"
      },
      "t_contract(Chicks)3879": {
        "encoding": "inplace",
        "label": "contract Chicks",
        "numberOfBytes": "20"
      },
      "t_contract(Egg)5332": {
        "encoding": "inplace",
        "label": "contract Egg",
        "numberOfBytes": "20"
      },
      "t_mapping(t_address,t_array(t_uint256)dyn_storage)": {
        "encoding": "mapping",
        "key": "t_address",
        "label": "mapping(address => uint256[])",
        "numberOfBytes": "32",
        "value": "t_array(t_uint256)dyn_storage"
      },
      "t_mapping(t_address,t_mapping(t_uint256,t_uint256))": {
        "encoding": "mapping",
        "key": "t_address",
        "label": "mapping(address => mapping(uint256 => uint256))",
        "numberOfBytes": "32",
        "value": "t_mapping(t_uint256,t_uint256)"
      },
      "t_mapping(t_uint256,t_uint256)": {
        "encoding": "mapping",
        "key": "t_uint256",
        "label": "mapping(uint256 => uint256)",
        "numberOfBytes": "32",
        "value": "t_uint256"
      },
      "t_uint256": {
        "encoding": "inplace",
        "label": "uint256",
        "numberOfBytes": "32"
      }
    }
  }
}