{
  "_format": "hh-sol-artifact-1",
  "contractName": "Egg",
  "sourceName": "contracts/Egg.sol",
  "abi": [
    {
      "inputs": [],
      "stateMutability": "nonpayable",
      "type": "constructor"
    },
    {
      "anonymous": false,
      "inputs": [
        {
          "indexed": true,
          "internalType": "address",
          "name": "owner",
          "type": "address"
        },
        {
          "indexed": true,
          "internalType": "address",
          "name": "spender",
          "type": "address"
        },
        {
          "indexed": false,
          "internalType": "uint256",
          "name": "value",
          "type": "uint256"
        }
      ],
      "name": "Approval",
      "type": "event"
    },
    {
      "anonymous": false,
      "inputs": [
        {
          "indexed": true,
          "internalType": "address",
          "name": "previousOwner",
          "type": "address"
        },
        {
          "indexed": true,
          "internalType": "address",
          "name": "newOwner",
          "type": "address"
        }
      ],
      "name": "OwnershipTransferred",
      "type": "event"
    },
    {
      "anonymous": false,
      "inputs": [
        {
          "indexed": false,
          "internalType": "address",
          "name": "account",
          "type": "address"
        }
      ],
      "name": "Paused",
      "type": "event"
    },
    {
      "anonymous": false,
      "inputs": [
        {
          "indexed": true,
          "internalType": "address",
          "name": "from",
          "type": "address"
        },
        {
          "indexed": true,
          "internalType": "address",
          "name": "to",
          "type": "address"
        },
        {
          "indexed": false,
          "internalType": "uint256",
          "name": "value",
          "type": "uint256"
        }
      ],
      "name": "Transfer",
      "type": "event"
    },
    {
      "anonymous": false,
      "inputs": [
        {
          "indexed": false,
          "internalType": "address",
          "name": "account",
          "type": "address"
        }
      ],
      "name": "Unpaused",
      "type": "event"
    },
    {
      "inputs": [],
      "name": "_enabled",
      "outputs": [
        {
          "internalType": "bool",
          "name": "",
          "type": "bool"
        }
      ],
      "stateMutability": "view",
      "type": "function"
    },
    {
      "inputs": [
        {
          "internalType": "address",
          "name": "owner",
          "type": "address"
        },
        {
          "internalType": "address",
          "name": "spender",
          "type": "address"
        }
      ],
      "name": "allowance",
      "outputs": [
        {
          "internalType": "uint256",
          "name": "",
          "type": "uint256"
        }
      ],
      "stateMutability": "view",
      "type": "function"
    },
    {
      "inputs": [
        {
          "internalType": "address",
          "name": "spender",
          "type": "address"
        },
        {
          "internalType": "uint256",
          "name": "amount",
          "type": "uint256"
        }
      ],
      "name": "approve",
      "outputs": [
        {
          "internalType": "bool",
          "name": "",
          "type": "bool"
        }
      ],
      "stateMutability": "nonpayable",
      "type": "function"
    },
    {
      "inputs": [
        {
          "internalType": "address",
          "name": "account",
          "type": "address"
        }
      ],
      "name": "balanceOf",
      "outputs": [
        {
          "internalType": "uint256",
          "name": "",
          "type": "uint256"
        }
      ],
      "stateMutability": "view",
      "type": "function"
    },
    {
      "inputs": [
        {
          "internalType": "address",
          "name": "account",
          "type": "address"
        },
        {
          "internalType": "uint256",
          "name": "amount",
          "type": "uint256"
        }
      ],
      "name": "burn",
      "outputs": [
        {
          "internalType": "bool",
          "name": "",
          "type": "bool"
        }
      ],
      "stateMutability": "nonpayable",
      "type": "function"
    },
    {
      "inputs": [],
      "name": "communityAddress",
      "outputs": [
        {
          "internalType": "address",
          "name": "",
          "type": "address"
        }
      ],
      "stateMutability": "view",
      "type": "function"
    },
    {
      "inputs": [],
      "name": "communityPercent",
      "outputs": [
        {
          "internalType": "uint256",
          "name": "",
          "type": "uint256"
        }
      ],
      "stateMutability": "view",
      "type": "function"
    },
    {
      "inputs": [],
      "name": "decimals",
      "outputs": [
        {
          "internalType": "uint8",
          "name": "",
          "type": "uint8"
        }
      ],
      "stateMutability": "view",
      "type": "function"
    },
    {
      "inputs": [
        {
          "internalType": "address",
          "name": "spender",
          "type": "address"
        },
        {
          "internalType": "uint256",
          "name": "subtractedValue",
          "type": "uint256"
        }
      ],
      "name": "decreaseAllowance",
      "outputs": [
        {
          "internalType": "bool",
          "name": "",
          "type": "bool"
        }
      ],
      "stateMutability": "nonpayable",
      "type": "function"
    },
    {
      "inputs": [],
      "name": "disable",
      "outputs": [],
      "stateMutability": "nonpayable",
      "type": "function"
    },
    {
      "inputs": [],
      "name": "enable",
      "outputs": [],
      "stateMutability": "nonpayable",
      "type": "function"
    },
    {
      "inputs": [
        {
          "internalType": "address",
          "name": "",
          "type": "address"
        }
      ],
      "name": "holder",
      "outputs": [
        {
          "internalType": "uint256",
          "name": "",
          "type": "uint256"
        }
      ],
      "stateMutability": "view",
      "type": "function"
    },
    {
      "inputs": [
        {
          "internalType": "address",
          "name": "spender",
          "type": "address"
        },
        {
          "internalType": "uint256",
          "name": "addedValue",
          "type": "uint256"
        }
      ],
      "name": "increaseAllowance",
      "outputs": [
        {
          "internalType": "bool",
          "name": "",
          "type": "bool"
        }
      ],
      "stateMutability": "nonpayable",
      "type": "function"
    },
    {
      "inputs": [],
      "name": "liqudityAddress",
      "outputs": [
        {
          "internalType": "address",
          "name": "",
          "type": "address"
        }
      ],
      "stateMutability": "view",
      "type": "function"
    },
    {
      "inputs": [],
      "name": "liqudityPercent",
      "outputs": [
        {
          "internalType": "uint256",
          "name": "",
          "type": "uint256"
        }
      ],
      "stateMutability": "view",
      "type": "function"
    },
    {
      "inputs": [],
      "name": "marketingAddress",
      "outputs": [
        {
          "internalType": "address",
          "name": "",
          "type": "address"
        }
      ],
      "stateMutability": "view",
      "type": "function"
    },
    {
      "inputs": [],
      "name": "marketingPercent",
      "outputs": [
        {
          "internalType": "uint256",
          "name": "",
          "type": "uint256"
        }
      ],
      "stateMutability": "view",
      "type": "function"
    },
    {
      "inputs": [
        {
          "internalType": "address",
          "name": "sender",
          "type": "address"
        },
        {
          "internalType": "uint256",
          "name": "amount",
          "type": "uint256"
        }
      ],
      "name": "mint",
      "outputs": [],
      "stateMutability": "nonpayable",
      "type": "function"
    },
    {
      "inputs": [],
      "name": "name",
      "outputs": [
        {
          "internalType": "string",
          "name": "",
          "type": "string"
        }
      ],
      "stateMutability": "view",
      "type": "function"
    },
    {
      "inputs": [],
      "name": "owner",
      "outputs": [
        {
          "internalType": "address",
          "name": "",
          "type": "address"
        }
      ],
      "stateMutability": "view",
      "type": "function"
    },
    {
      "inputs": [],
      "name": "paused",
      "outputs": [
        {
          "internalType": "bool",
          "name": "",
          "type": "bool"
        }
      ],
      "stateMutability": "view",
      "type": "function"
    },
    {
      "inputs": [],
      "name": "renounceOwnership",
      "outputs": [],
      "stateMutability": "nonpayable",
      "type": "function"
    },
    {
      "inputs": [
        {
          "internalType": "address",
          "name": "_communityAddress",
          "type": "address"
        }
      ],
      "name": "setCommunityAddress",
      "outputs": [],
      "stateMutability": "nonpayable",
      "type": "function"
    },
    {
      "inputs": [
        {
          "internalType": "uint256",
          "name": "_communityPercent",
          "type": "uint256"
        }
      ],
      "name": "setCommunityPercent",
      "outputs": [],
      "stateMutability": "nonpayable",
      "type": "function"
    },
    {
      "inputs": [
        {
          "internalType": "address",
          "name": "_liqudityAddress",
          "type": "address"
        }
      ],
      "name": "setLiqudityAddress",
      "outputs": [],
      "stateMutability": "nonpayable",
      "type": "function"
    },
    {
      "inputs": [
        {
          "internalType": "uint256",
          "name": "_liqudityPercent",
          "type": "uint256"
        }
      ],
      "name": "setLiqudityPercent",
      "outputs": [],
      "stateMutability": "nonpayable",
      "type": "function"
    },
    {
      "inputs": [
        {
          "internalType": "address",
          "name": "_marketingAddress",
          "type": "address"
        }
      ],
      "name": "setMarketingAddress",
      "outputs": [],
      "stateMutability": "nonpayable",
      "type": "function"
    },
    {
      "inputs": [
        {
          "internalType": "uint256",
          "name": "_marketingPercent",
          "type": "uint256"
        }
      ],
      "name": "setMarketingPercent",
      "outputs": [],
      "stateMutability": "nonpayable",
      "type": "function"
    },
    {
      "inputs": [
        {
          "internalType": "address",
          "name": "_stakingContract",
          "type": "address"
        }
      ],
      "name": "setStakingContract",
      "outputs": [],
      "stateMutability": "nonpayable",
      "type": "function"
    },
    {
      "inputs": [],
      "name": "stakingContract",
      "outputs": [
        {
          "internalType": "address",
          "name": "",
          "type": "address"
        }
      ],
      "stateMutability": "view",
      "type": "function"
    },
    {
      "inputs": [],
      "name": "symbol",
      "outputs": [
        {
          "internalType": "string",
          "name": "",
          "type": "string"
        }
      ],
      "stateMutability": "view",
      "type": "function"
    },
    {
      "inputs": [],
      "name": "tokenAmount",
      "outputs": [
        {
          "internalType": "uint256",
          "name": "",
          "type": "uint256"
        }
      ],
      "stateMutability": "view",
      "type": "function"
    },
    {
      "inputs": [],
      "name": "totalSupply",
      "outputs": [
        {
          "internalType": "uint256",
          "name": "",
          "type": "uint256"
        }
      ],
      "stateMutability": "view",
      "type": "function"
    },
    {
      "inputs": [
        {
          "internalType": "address",
          "name": "recipient",
          "type": "address"
        },
        {
          "internalType": "uint256",
          "name": "amount",
          "type": "uint256"
        }
      ],
      "name": "transfer",
      "outputs": [
        {
          "internalType": "bool",
          "name": "",
          "type": "bool"
        }
      ],
      "stateMutability": "nonpayable",
      "type": "function"
    },
    {
      "inputs": [
        {
          "internalType": "address",
          "name": "sender",
          "type": "address"
        },
        {
          "internalType": "address",
          "name": "recipient",
          "type": "address"
        },
        {
          "internalType": "uint256",
          "name": "amount",
          "type": "uint256"
        }
      ],
      "name": "transferFrom",
      "outputs": [
        {
          "internalType": "bool",
          "name": "",
          "type": "bool"
        }
      ],
      "stateMutability": "nonpayable",
      "type": "function"
    },
    {
      "inputs": [
        {
          "internalType": "address",
          "name": "newOwner",
          "type": "address"
        }
      ],
      "name": "transferOwnership",
      "outputs": [],
      "stateMutability": "nonpayable",
      "type": "function"
    },
    {
      "inputs": [],
      "name": "withdraw",
      "outputs": [],
      "stateMutability": "payable",
      "type": "function"
    }
  ],
  "bytecode": "0x60806040526005805460ff60a81b191690556000600a556002600b8190556001600c55600d553480156200003257600080fd5b5060408051808201825260038082526245676760e81b602080840191825284518086019095528285526245474760e81b9085015282519293926200007892919062000166565b5080516200008e90600490602084019062000166565b505050620000ab620000a56200011060201b60201c565b62000114565b6005805460ff60a01b19169055600780546001600160a01b031990811673cb6fe3235443b7cd4ef4420165cecba94925eff6179091556008805482167320c86ccb82aaf796041dc06aef706cef8e536100179055600980549091163017905562000249565b3390565b600580546001600160a01b038381166001600160a01b0319831681179093556040519116919082907f8be0079c531659141344cd1fd0a4f28419497f9722a3daafe3b4186f6b6457e090600090a35050565b82805462000174906200020c565b90600052602060002090601f016020900481019282620001985760008555620001e3565b82601f10620001b357805160ff1916838001178555620001e3565b82800160010185558215620001e3579182015b82811115620001e3578251825591602001919060010190620001c6565b50620001f1929150620001f5565b5090565b5b80821115620001f15760008155600101620001f6565b600181811c908216806200022157607f821691505b602082108114156200024357634e487b7160e01b600052602260045260246000fd5b50919050565b611a2b80620002596000396000f3fe6080604052600436106102195760003560e01c8063906e9dd011610123578063c36be496116100ab578063e91a04841161006f578063e91a048414610633578063ee99205c14610653578063eec7faa114610673578063f2fde38b14610689578063f7ce4479146106a957600080fd5b8063c36be49614610576578063c6055ec314610597578063d8020a18146105b7578063dc8ab6b8146105cd578063dd62ed3e146105ed57600080fd5b8063a3907d71116100f2578063a3907d71146104e1578063a457c2d7146104f6578063a4a92ad614610516578063a5ece94114610536578063a9059cbb1461055657600080fd5b8063906e9dd01461046c57806395d89b411461048c5780639dc29fac146104a15780639dd373b9146104c157600080fd5b80633ccfd60b116101a657806370a082311161017557806370a08231146103b5578063715018a6146103eb578063844284d71461040057806386e476dd146104165780638da5cb5b1461044e57600080fd5b80633ccfd60b1461035857806340c10f1914610360578063506e0f08146103805780635c975abb1461039657600080fd5b80631eb7caba116101ed5780631eb7caba146102ba57806323b872dd146102e75780632f2770db14610307578063313ce5671461031c578063395093511461033857600080fd5b80623013cb1461021e57806306fdde0314610240578063095ea7b31461026b57806318160ddd1461029b575b600080fd5b34801561022a57600080fd5b5061023e6102393660046117df565b6106c9565b005b34801561024c57600080fd5b5061025561071e565b60405161026291906118ae565b60405180910390f35b34801561027757600080fd5b5061028b61028636600461186d565b6107b0565b6040519015158152602001610262565b3480156102a757600080fd5b506002545b604051908152602001610262565b3480156102c657600080fd5b506102ac6102d53660046117df565b600e6020526000908152604090205481565b3480156102f357600080fd5b5061028b610302366004611832565b6107c8565b34801561031357600080fd5b5061023e610a01565b34801561032857600080fd5b5060405160128152602001610262565b34801561034457600080fd5b5061028b61035336600461186d565b610a35565b61023e610a74565b34801561036c57600080fd5b5061023e61037b36600461186d565b610b12565b34801561038c57600080fd5b506102ac600d5481565b3480156103a257600080fd5b50600554600160a01b900460ff1661028b565b3480156103c157600080fd5b506102ac6103d03660046117df565b6001600160a01b031660009081526020819052604090205490565b3480156103f757600080fd5b5061023e610bd2565b34801561040c57600080fd5b506102ac600c5481565b34801561042257600080fd5b50600854610436906001600160a01b031681565b6040516001600160a01b039091168152602001610262565b34801561045a57600080fd5b506005546001600160a01b0316610436565b34801561047857600080fd5b5061023e6104873660046117df565b610c06565b34801561049857600080fd5b50610255610c52565b3480156104ad57600080fd5b5061028b6104bc36600461186d565b610c61565b3480156104cd57600080fd5b5061023e6104dc3660046117df565b610ca1565b3480156104ed57600080fd5b5061023e610ced565b34801561050257600080fd5b5061028b61051136600461186d565b610d1f565b34801561052257600080fd5b5061023e610531366004611896565b610dbc565b34801561054257600080fd5b50600754610436906001600160a01b031681565b34801561056257600080fd5b5061028b61057136600461186d565b610deb565b34801561058257600080fd5b5060055461028b90600160a81b900460ff1681565b3480156105a357600080fd5b5061023e6105b2366004611896565b610fed565b3480156105c357600080fd5b506102ac600b5481565b3480156105d957600080fd5b5061023e6105e8366004611896565b61101c565b3480156105f957600080fd5b506102ac610608366004611800565b6001600160a01b03918216600090815260016020908152604080832093909416825291909152205490565b34801561063f57600080fd5b50600954610436906001600160a01b031681565b34801561065f57600080fd5b50600654610436906001600160a01b031681565b34801561067f57600080fd5b506102ac600a5481565b34801561069557600080fd5b5061023e6106a43660046117df565b61104b565b3480156106b557600080fd5b5061023e6106c43660046117df565b6110e3565b6005546001600160a01b031633146106fc5760405162461bcd60e51b81526004016106f390611901565b60405180910390fd5b600980546001600160a01b0319166001600160a01b0392909216919091179055565b60606003805461072d906119a4565b80601f0160208091040260200160405190810160405280929190818152602001828054610759906119a4565b80156107a65780601f1061077b576101008083540402835291602001916107a6565b820191906000526020600020905b81548152906001019060200180831161078957829003601f168201915b5050505050905090565b6000336107be81858561112f565b5060019392505050565b600954600d546000916107fd9186916001600160a01b0316906064906107ee908761196e565b6107f8919061194e565b611254565b600754600b546108229186916001600160a01b03909116906064906107ee908761196e565b600854600c546108479186916001600160a01b03909116906064906107ee908761196e565b61088184846064600c54600b54600d546064610863919061198d565b61086d919061198d565b610877919061198d565b6107ee908761196e565b6064600d5483610891919061196e565b61089b919061194e565b6009546001600160a01b03166000908152600e6020526040812080549091906108c5908490611936565b9091555050600b546064906108da908461196e565b6108e4919061194e565b6007546001600160a01b03166000908152600e60205260408120805490919061090e908490611936565b9091555050600c54606490610923908461196e565b61092d919061194e565b6008546001600160a01b03166000908152600e602052604081208054909190610957908490611936565b925050819055506064600c54600b54600d546064610975919061198d565b61097f919061198d565b610989919061198d565b610993908461196e565b61099d919061194e565b6001600160a01b0384166000908152600e6020526040812080549091906109c5908490611936565b90915550506001600160a01b0384166000908152600e6020526040812080548492906109f290849061198d565b90915550600195945050505050565b6005546001600160a01b03163314610a2b5760405162461bcd60e51b81526004016106f390611901565b610a33611423565b565b3360008181526001602090815260408083206001600160a01b03871684529091528120549091906107be9082908690610a6f908790611936565b61112f565b6005546001600160a01b03163314610a9e5760405162461bcd60e51b81526004016106f390611901565b6000610ab26005546001600160a01b031690565b6001600160a01b03164760405160006040518083038185875af1925050503d8060008114610afc576040519150601f19603f3d011682016040523d82523d6000602084013e610b01565b606091505b5050905080610b0f57600080fd5b50565b6005546001600160a01b0316331480610b3557506006546001600160a01b031633145b610b6f5760405162461bcd60e51b815260206004820152600b60248201526a109859081c995c5d595cdd60aa1b60448201526064016106f3565b610b8a82610b8583670de0b6b3a764000061196e565b6114c8565b80600a6000828254610b9c9190611936565b90915550506001600160a01b0382166000908152600e602052604081208054839290610bc9908490611936565b90915550505050565b6005546001600160a01b03163314610bfc5760405162461bcd60e51b81526004016106f390611901565b610a3360006115a7565b6005546001600160a01b03163314610c305760405162461bcd60e51b81526004016106f390611901565b600780546001600160a01b0319166001600160a01b0392909216919091179055565b60606004805461072d906119a4565b6005546000906001600160a01b03163314610c8e5760405162461bcd60e51b81526004016106f390611901565b610c9883836115f9565b50600192915050565b6005546001600160a01b03163314610ccb5760405162461bcd60e51b81526004016106f390611901565b600680546001600160a01b0319166001600160a01b0392909216919091179055565b6005546001600160a01b03163314610d175760405162461bcd60e51b81526004016106f390611901565b610a3361173f565b3360008181526001602090815260408083206001600160a01b038716845290915281205490919083811015610da45760405162461bcd60e51b815260206004820152602560248201527f45524332303a2064656372656173656420616c6c6f77616e63652062656c6f77604482015264207a65726f60d81b60648201526084016106f3565b610db1828686840361112f565b506001949350505050565b6005546001600160a01b03163314610de65760405162461bcd60e51b81526004016106f390611901565b600d55565b600954600d54600091610e119133916001600160a01b0316906064906107ee908761196e565b600754600b54610e369133916001600160a01b03909116906064906107ee908761196e565b600854600c54610e5b9133916001600160a01b03909116906064906107ee908761196e565b610e7733846064600c54600b54600d546064610863919061198d565b6064600d5483610e87919061196e565b610e91919061194e565b6009546001600160a01b03166000908152600e602052604081208054909190610ebb908490611936565b9091555050600b54606490610ed0908461196e565b610eda919061194e565b6007546001600160a01b03166000908152600e602052604081208054909190610f04908490611936565b9091555050600c54606490610f19908461196e565b610f23919061194e565b6008546001600160a01b03166000908152600e602052604081208054909190610f4d908490611936565b925050819055506064600c54600b54600d546064610f6b919061198d565b610f75919061198d565b610f7f919061198d565b610f89908461196e565b610f93919061194e565b6001600160a01b0384166000908152600e602052604081208054909190610fbb908490611936565b9091555050336000908152600e602052604081208054849290610fdf90849061198d565b909155506001949350505050565b6005546001600160a01b031633146110175760405162461bcd60e51b81526004016106f390611901565b600b55565b6005546001600160a01b031633146110465760405162461bcd60e51b81526004016106f390611901565b600c55565b6005546001600160a01b031633146110755760405162461bcd60e51b81526004016106f390611901565b6001600160a01b0381166110da5760405162461bcd60e51b815260206004820152602660248201527f4f776e61626c653a206e6577206f776e657220697320746865207a65726f206160448201526564647265737360d01b60648201526084016106f3565b610b0f816115a7565b6005546001600160a01b0316331461110d5760405162461bcd60e51b81526004016106f390611901565b600880546001600160a01b0319166001600160a01b0392909216919091179055565b6001600160a01b0383166111915760405162461bcd60e51b8152602060048201526024808201527f45524332303a20617070726f76652066726f6d20746865207a65726f206164646044820152637265737360e01b60648201526084016106f3565b6001600160a01b0382166111f25760405162461bcd60e51b815260206004820152602260248201527f45524332303a20617070726f766520746f20746865207a65726f206164647265604482015261737360f01b60648201526084016106f3565b6001600160a01b0383811660008181526001602090815260408083209487168084529482529182902085905590518481527f8c5be1e5ebec7d5bd14f71427d1e84f3dd0314c0f7b2291e5b200ac8c7c3b92591015b60405180910390a3505050565b6001600160a01b0383166112b85760405162461bcd60e51b815260206004820152602560248201527f45524332303a207472616e736665722066726f6d20746865207a65726f206164604482015264647265737360d81b60648201526084016106f3565b6001600160a01b03821661131a5760405162461bcd60e51b815260206004820152602360248201527f45524332303a207472616e7366657220746f20746865207a65726f206164647260448201526265737360e81b60648201526084016106f3565b6001600160a01b038316600090815260208190526040902054818110156113925760405162461bcd60e51b815260206004820152602660248201527f45524332303a207472616e7366657220616d6f756e7420657863656564732062604482015265616c616e636560d01b60648201526084016106f3565b6001600160a01b038085166000908152602081905260408082208585039055918516815290812080548492906113c9908490611936565b92505081905550826001600160a01b0316846001600160a01b03167fddf252ad1be2c89b69c2b068fc378daa952ba7f163c4a11628f55a4df523b3ef8460405161141591815260200190565b60405180910390a350505050565b600554600160a01b900460ff16156114705760405162461bcd60e51b815260206004820152601060248201526f14185d5cd8589b194e881c185d5cd95960821b60448201526064016106f3565b6005805460ff60a01b1916600160a01b1790557f62e78cea01bee320cd4e420270b5ea74000d11b0c9f74754ebdbfc544b05a2586114ab3390565b6040516001600160a01b03909116815260200160405180910390a1565b6001600160a01b03821661151e5760405162461bcd60e51b815260206004820152601f60248201527f45524332303a206d696e7420746f20746865207a65726f20616464726573730060448201526064016106f3565b80600260008282546115309190611936565b90915550506001600160a01b0382166000908152602081905260408120805483929061155d908490611936565b90915550506040518181526001600160a01b038316906000907fddf252ad1be2c89b69c2b068fc378daa952ba7f163c4a11628f55a4df523b3ef9060200160405180910390a35050565b600580546001600160a01b038381166001600160a01b0319831681179093556040519116919082907f8be0079c531659141344cd1fd0a4f28419497f9722a3daafe3b4186f6b6457e090600090a35050565b6001600160a01b0382166116595760405162461bcd60e51b815260206004820152602160248201527f45524332303a206275726e2066726f6d20746865207a65726f206164647265736044820152607360f81b60648201526084016106f3565b6001600160a01b038216600090815260208190526040902054818110156116cd5760405162461bcd60e51b815260206004820152602260248201527f45524332303a206275726e20616d6f756e7420657863656564732062616c616e604482015261636560f01b60648201526084016106f3565b6001600160a01b03831660009081526020819052604081208383039055600280548492906116fc90849061198d565b90915550506040518281526000906001600160a01b038516907fddf252ad1be2c89b69c2b068fc378daa952ba7f163c4a11628f55a4df523b3ef90602001611247565b600554600160a01b900460ff1661178f5760405162461bcd60e51b815260206004820152601460248201527314185d5cd8589b194e881b9bdd081c185d5cd95960621b60448201526064016106f3565b6005805460ff60a01b191690557f5db9ee0a495bf2e6ff9c91a7834c1ba4fdd244a5e8aa4e537bd38aeae4b073aa336114ab565b80356001600160a01b03811681146117da57600080fd5b919050565b6000602082840312156117f0578081fd5b6117f9826117c3565b9392505050565b60008060408385031215611812578081fd5b61181b836117c3565b9150611829602084016117c3565b90509250929050565b600080600060608486031215611846578081fd5b61184f846117c3565b925061185d602085016117c3565b9150604084013590509250925092565b6000806040838503121561187f578182fd5b611888836117c3565b946020939093013593505050565b6000602082840312156118a7578081fd5b5035919050565b6000602080835283518082850152825b818110156118da578581018301518582016040015282016118be565b818111156118eb5783604083870101525b50601f01601f1916929092016040019392505050565b6020808252818101527f4f776e61626c653a2063616c6c6572206973206e6f7420746865206f776e6572604082015260600190565b60008219821115611949576119496119df565b500190565b60008261196957634e487b7160e01b81526012600452602481fd5b500490565b6000816000190483118215151615611988576119886119df565b500290565b60008282101561199f5761199f6119df565b500390565b600181811c908216806119b857607f821691505b602082108114156119d957634e487b7160e01b600052602260045260246000fd5b50919050565b634e487b7160e01b600052601160045260246000fdfea2646970667358221220aa33ed4e7e153f59434d9a2767f82026c7a45bbae962de6afcdd00dd1adc797864736f6c63430008040033",
  "linkReferences": {},
  "deployedLinkReferences": {}
}